:100000000C942A000C9460040C9487040C94470010
:100010000C9447000C9447000C9447000C94470044
:100020000C9447000C9447000C9437050C94100571
:100030000C9447000C9447000C9447000C94470024
:100040000C9447000C9447000C9447000C94470014
:100050000C94470011241FBECFE5D8E0DEBFCDBF12
:1000600010E0A0E6B0E0E4E7FEE002C005900D92EB
:10007000A037B107D9F720E0A0E7B0E001C01D929A
:10008000A03AB207E1F70E9433030C9438070C94AE
:100090000000809174008F5F80937400883014F0AA
:1000A000109274000895809173008F5F80937300A5
:1000B000853010F010927300089580917100909136
:1000C00072000196909372008093710008951092CF
:1000D0008400E5E8F0E08081807880618F7780831C
:1000E000E6E8F0E08081807880628F778083E7E8BF
:1000F000F0E08081807880638F778083EEE9F0E0A4
:1001000092E091838081887F8360877C80618F7B90
:100110008083E8E8F0E091838081887F8360877C3A
:1001200088618F7B8083EAE8F0E084E690E0918349
:10013000808384E893E09383828388EC90E09583C6
:10014000848320E233E0378326834CE251E05187F9
:1001500040874CEB52E05387428744EF51E055878C
:10016000448757874687318B208B938B828B84E81B
:1001700090E00E94810185E890E00E94810186E87C
:1001800090E00E94810187E890E00E94810169E48B
:1001900070E08EE990E00E94020263E570E088E87A
:1001A00090E00E9402026DE570E088EE93E00E940C
:1001B00077028EE990E00E94380288E890E00E9481
:1001C00038020E9429030895CF93DF9388E890E0D6
:1001D0000E945302C091730088E890E00E943802A8
:1001E0008C2F90E0FC01EE0FFF1FEE0FFF1FE65774
:1001F000FF4F408151812091710030917200421770
:10020000530708F452C080917000811177C08EE9C5
:1002100090E00E945302D09174008EE990E00E9419
:100220003802C0E03CC08BEF8D0F8530E0F08DECE4
:10023000D89F812D112486958695982F990F990F17
:10024000890F9D2F981BC91738F48C2F90E08C577D
:100250009F4F0E94B20122C08C2F90E08C579F4F7D
:100260000E94DA011BC08DECD89F812D1124869548
:100270008695982F990F990F890F9D2F981B9C1782
:1002800038F08C2F90E08C579F4F0E94DA0106C007
:100290008C2F90E08C579F4F0E94B201CF5FC430EB
:1002A00010F281E08093700029C0880F991F880F99
:1002B000991FFC01E657FF4F82819381480F591F18
:1002C0002417350798F4809170008130B9F408C084
:1002D0008C2F90E08C579F4F0E94DA01CF5F01C0B6
:1002E000C0E0C430A8F31092700008C00E942E0332
:1002F00010927200109271000E942903DF91CF9139
:100300000895CF93DF931F92CDB7DEB7009729F101
:10031000FC012081922F97708981887F892B922FF1
:1003200092959F709770990F990F990F877C892BE1
:1003300027FB222720F9806420FB87F98983CE01DF
:1003400001960E943803698167FB662760F9CE0138
:1003500001960E947C0380E001C081E00F90DF9154
:10036000CF910895CF93DF931F92CDB7DEB700975B
:10037000E1F0FC013081832F87709981987F982B61
:10038000232F22952F702770220F220F220F977C88
:10039000922B9064906899833068308361E0CE013D
:1003A00001960E947C0380E001C081E00F90DF9104
:1003B000CF910895CF93DF931F92CDB7DEB700970B
:1003C000E1F0FC013081832F87709981987F982B11
:1003D000232F22952F702770220F220F220F977C38
:1003E000922B90649F7799833F77308360E0CE01B2
:1003F00001960E947C0380E001C081E00F90DF91B4
:10040000CF9108950F931F93CF93DF93009721F11E
:100410006115710519F1FC012081322F37703330DD
:10042000F9F48B01EC012873203151F40E94380358
:10043000C8010E944C04CE010E94CD0380E013C08D
:10044000283181F40E943803C8010E945604CE016D
:100450000E94E10380E007C081E005C081E003C0A5
:1004600081E001C081E0DF91CF911F910F9108954C
:10047000009799F0FC012081322F3770333079F4E6
:100480002873203121F40E94FE0380E00895283172
:1004900041F40E94120480E0089581E0089581E013
:1004A000089581E00895009799F0FC012081322F92
:1004B0003770333079F42873203121F40E942C04F2
:1004C00080E00895283141F40E943C0480E00895C2
:1004D00081E0089581E0089581E00895E09175003C
:1004E000F091760009958091790082BF08958F92EE
:1004F0009F92AF92BF92EF92FF920F931F93CF9371
:10050000DF93CDB7DEB766970FB6F894DEBF0FBEA8
:10051000CDBF8C017B011A8219821B821C821D8235
:100520001E821F82188619861A8680E091E0A0E05C
:10053000B0E08B879C87AD87BE871F86188A81E0D5
:10054000898B1A8A1B8A1C8A1D8A1E8A2F853889E4
:1005500049895A896B897C898D899E890E943C06CC
:1005600020E034E244E759E40E945E0520E034E2F2
:1005700044E759E40E94CB060E94D0056B837C833C
:100580008D839E836B857C858D859E850E94FF056E
:1005900020E034E244E759E40E945E0520E034E2C2
:1005A00044E759E40E94CB060E94D0056F83788708
:1005B00089879A878B819C81AD81BE81BC01CD01E9
:1005C000601B710B810991090E94FF054B015C01C1
:1005D0006F81788589859A850E94FF059B01AC0112
:1005E000C501B4010E945E050E94D0057A8369832B
:1005F000083E1340E0F089819A81E7E7F0E09383B9
:100600008283108284E08183EBE7F0E08081826066
:100610008083F0927600E09275008EE692E00E9470
:100620000A0587E790E00E94AE0480E001C081E007
:1006300066960FB6F894DEBF0FBECDBFDF91CF91A7
:100640001F910F91FF90EF90BF90AF909F908F9070
:10065000089587E790E00E94E904089587E790E015
:100660000E94FB0408950E9467000E94E400FDCFF1
:10067000FC01892BD9F140814695469546954770F6
:100680002081277030E02430310594F58081982F47
:10069000907486FF14C0220F331FF901E859FF4FF1
:1006A0000190F081E02D208181E090E002C0880F70
:1006B000991F4A95E2F7822B808380E0089591117B
:1006C00019C0220F331FF901E859FF4F0190F08143
:1006D000E02D208181E090E002C0880F991F4A95AB
:1006E000E2F780958223808380E0089581E0089579
:1006F00081E0089581E00895009709F44AC06623D7
:1007000029F1613009F047C0DC012C91E22FE7703C
:10071000F0E0EE0FFF1FE05AFF4F0190F081E02D57
:100720006081269526952695277041E050E0DA01F4
:1007300002C0AA0FBB1F2A95E2F79D01262B20833A
:10074000FC0120812068208380E00895DC012C9149
:10075000E22FE770F0E0EE0FFF1FE05AFF4F01902D
:10076000F081E02D6081269526952695277041E041
:1007700050E0DA0102C0AA0FBB1F2A95E2F79D01E3
:10078000209526232083FC0120812F77208380E081
:10079000089581E0089581E00895FC01892B69F0B6
:1007A00090819F73933159F495B78181892B85BFCF
:1007B0008FB780688FBF80E0089581E0089581E061
:1007C0000895FC01892BB1F090819F739B31A1F4B6
:1007D0008BB780688BBF25B79181892F90E0880FF8
:1007E000991F880F991F822B85BF8FB780688FBF95
:1007F00080E0089581E0089581E00895FC01892B4F
:1008000069F090819F73933159F48BB780648BBFEB
:1008100095B78181892B85BF80E0089581E0089597
:1008200081E00895FC01892B99F090819F739B31A1
:1008300089F48BB780688BBF25B79181892F90E0B1
:10084000880F991F880F991F822B85BF80E008951C
:1008500081E0089581E00895009751F0FC018081C6
:100860008F73833139F48BB78F7B8BBF80E0089512
:1008700081E0089581E00895009751F0FC018081A6
:100880008F738B3139F48BB78F778BBF80E00895EE
:1008900081E0089581E00895009731F090937F0002
:1008A00080937E0080E0089581E00895009731F004
:1008B00090937D0080937C0080E0089581E008950E
:1008C0001F920F920FB60F9211242F933F934F93C5
:1008D0005F936F937F938F939F93AF93BF93EF93A8
:1008E000FF93E0917E00F0917F000995FF91EF91D9
:1008F000BF91AF919F918F917F916F915F914F9138
:100900003F912F910F900FBE0F901F9018951F923F
:100910000F920FB60F9211242F933F934F935F9333
:100920006F937F938F939F93AF93BF93EF93FF93B7
:10093000E0917C00F0917D000995FF91EF91BF91CE
:10094000AF919F918F917F916F915F914F913F9167
:100950002F910F900FBE0F901F901895FC01892BBF
:1009600091F183B79081292F217030E000243695D2
:1009700027950794369527950794322F202D282BFD
:1009800023BF83B790819695292F30E0220F331F24
:10099000220F331F220F331F282B23BF8081811189
:1009A00014C099B78481482F417050E0440F551FFF
:1009B00086958170482B492B49BF8481837039F01B
:1009C000789480E0089581E0089580E0089580E0C3
:1009D0000895009761F0FC01208121110AC0228155
:1009E00022BF23B78181822B83BF80E0089581E0FD
:1009F000089580E00895009749F0FC0180818111FD
:100A000007C083B7887F83BF80E0089581E00895A1
:100A100080E00895909383008093820080E00895A1
:100A20001F920F920FB60F9211242F933F934F9363
:100A30005F936F937F938F939F93AF93BF93EF9346
:100A4000FF93E0918200F09183000995FF91EF916F
:100A5000BF91AF919F918F917F916F915F914F91D6
:100A60003F912F910F900FBE0F901F9018951F92DE
:100A70000F920FB60F9211242F933F934F935F93D2
:100A80006F937F938F939F93AF93BF93EF93FF9356
:100A9000E0918000F09181000995FF91EF91BF9165
:100AA000AF919F918F917F916F915F914F913F9106
:100AB0002F910F900FBE0F901F9018950E947205F6
:100AC0000C9491060E948A0658F00E94830640F01A
:100AD00029F45F3F29F00C947A0651110C94C50655
:100AE0000C9480060E94A20668F39923B1F3552363
:100AF00091F3951B550BBB27AA2762177307840731
:100B000038F09F5F5F4F220F331F441FAA1FA9F3C6
:100B100035D00E2E3AF0E0E832D091505040E695B4
:100B2000001CCAF72BD0FE2F29D0660F771F881F15
:100B3000BB1F261737074807AB07B0E809F0BB0B08
:100B4000802DBF01FF2793585F4F3AF09E3F51051C
:100B500078F00C947A060C94C5065F3FE4F3983E57
:100B6000D4F3869577956795B795F7959F5FC9F705
:100B7000880F911D9695879597F90895E1E0660F86
:100B8000771F881FBB1F621773078407BA0720F0FF
:100B9000621B730B840BBA0BEE1F88F7E095089568
:100BA0000E94AA0688F09F5798F0B92F9927B7514D
:100BB000B0F0E1F0660F771F881F991F1AF0BA9501
:100BC000C9F714C0B13091F00E94C406B1E0089595
:100BD0000C94C406672F782F8827B85F39F0B93F87
:100BE000CCF3869577956795B395D9F73EF49095B4
:100BF0008095709561957F4F8F4F9F4F0895E89432
:100C000009C097FB3EF490958095709561957F4F54
:100C10008F4F9F4F9923A9F0F92F96E9BB27939502
:100C2000F695879577956795B795F111F8CFFAF412
:100C3000BB0F11F460FF1BC06F5F7F4F8F4F9F4F43
:100C400016C0882311F096E911C0772321F09EE8A1
:100C5000872F762F05C0662371F096E8862F70E007
:100C600060E02AF09A95660F771F881FDAF7880FE1
:100C70009695879597F90895E894F92F96EBFF23B9
:100C800081F0121613061406440B9395F69587957A
:100C90007795679557954040FF23B9F71BC0992773
:100CA0000895882351F49850D2F7872B762F652F1B
:100CB000542F432F322F20E0B1F3121613061406DF
:100CC000440B88233AF09A95440F551F661F771FEF
:100CD000881FCAF755234AF4440F551F11F460FFCB
:100CE00004C06F5F7F4F8F4F9F4F880F96958795FA
:100CF00097F9089597F99F6780E870E060E008959C
:100D00009FEF80EC089500240A9416161706180623
:100D10000906089500240A941216130614060506FF
:100D20000895092E0394000C11F4882352F0BB0F90
:100D300040F4BF2B11F460FF04C06F5F7F4F8F4FF3
:100D40009F4F089557FD9058440F551F59F05F3F2E
:100D500071F04795880F97FB991F61F09F3F79F0DD
:100D600087950895121613061406551FF2CF46955F
:100D7000F1DF08C0161617061806991FF1CF8695E1
:100D80007105610508940895E894BB2766277727C5
:100D9000CB0197F908950E94DE060C9491060E94FB
:100DA000830638F00E948A0620F0952311F00C94F7
:100DB0007A060C94800611240C94C5060E94A206A3
:100DC00070F3959FC1F3950F50E0551F629FF0019E
:100DD000729FBB27F00DB11D639FAA27F00DB11DB7
:100DE000AA1F649F6627B00DA11D661F829F222740
:100DF000B00DA11D621F739FB00DA11D621F839FC7
:100E0000A00D611D221F749F3327A00D611D231F9C
:100E1000849F600D211D822F762F6A2F11249F57EA
:100E200050409AF0F1F088234AF0EE0FFF1FBB1FED
:100E3000661F771F881F91505040A9F79E3F5105AC
:100E400080F00C947A060C94C5065F3FE4F3983E5C
:100E5000D4F3869577956795B795F795E7959F5F56
:100E6000C1F7FE2B880F911D9695879597F90895E8
:040E7000F894FFCF24
:100E74003B003800350032003A00370034003100BE
:00000001FF
