S00E00006C65645F76312E73726563DB
S11300000C942A000C9447000C9447000C9447006D
S11300100C9447000C9447000C9447000C94470040
S11300200C9447000C9447000C9447000C94470030
S11300300C9447000C9447000C9447000C94470020
S11300400C9447000C9447000C9447000C94470010
S11300500C94470011241FBECFE5D8E0DEBFCDBF0E
S113006010E0A0E6B0E0EAE7F4E002C005900D92EB
S1130070A837B107D9F720E0A8E7B0E001C01D9286
S1130080A138B207E1F70E9478010C943B020C946A
S1130090000010927A00EBE7F0E0808180788061C4
S11300A08F778083ECE7F0E08081807880628F77BF
S11300B08083EDE7F0E08081807880638F778083B0
S11300C0EEE7F0E080818078806280831282118282
S11300D08AE790E00E94B5008BE790E00E94B500AB
S11300E08CE790E00E94B5008DE790E00E94B50097
S11300F08EE790E00E9436010895CF9369E770E09F
S11301008EE790E00E943D0180917900813059F59D
S1130110809178008F5F80937800853030F490E090
S113012087589F4F0E94E6000DC010927800C0E0EF
S113013007C08C2F90E086589F4F0E940E01CF5F1E
S1130140C430B8F369E770E08EE790E00E943D01A7
S113015006C069E770E08EE790E00E943D0180915F
S113016079008130B1F3CF910895CF93DF931F923B
S1130170CDB7DEB7009729F1FC012081922F97704B
S11301808981887F892B922F92959F709770990F00
S1130190990F990F877C892B27FB222720F98064EC
S11301A020FB87F98983CE0101960E947D01698134
S11301B067FB662760F9CE0101960E94C10180E0C9
S11301C001C081E00F90DF91CF910895CF93DF9329
S11301D01F92CDB7DEB70097E1F0FC013081832F89
S11301E087709981987F982B232F22952F702770E1
S11301F0220F220F220F977C922B90649068998390
S11302003068308361E0CE0101960E94C10180E034
S113021001C081E00F90DF91CF910895CF93DF93D8
S11302201F92CDB7DEB70097E1F0FC013081832F38
S113023087709981987F982B232F22952F70277090
S1130240220F220F220F977C922B90649F77998321
S11302503F77308360E0CE0101960E94C10180E0C7
S113026001C081E00F90DF91CF910895009719F0BC
S11302700E947D01089581E00895EF92FF920F930B
S11302801F93CF93DF931F92CDB7DEB7009729F169
S11302906115710521F17B018C01BE016F5F7F4FF8
S11302A00E941202F8019281898198130BC081E0A7
S11302B0F7018083F80181838081998190FB87F91C
S11302C0808309C0F7011082F8011182808199812D
S11302D090FB87F9808380E003C081E001C081E066
S11302E00F90DF91CF911F910F91FF90EF900895A0
S11302F00E9449000E947D00FDCFFC01892BD9F1A9
S1130300408146954695469547702081277030E098
S11303102430310594F58081982F907486FF14C0A1
S1130320220F331FF901E059FF4F0190F081E02DB6
S1130330208181E090E002C0880F991F4A95E2F77E
S1130340822B808380E00895911119C0220F331FFE
S1130350F901E059FF4F0190F081E02D208181E007
S113036090E002C0880F991F4A95E2F78095822396
S1130370808380E0089581E0089581E0089581E01C
S11303800895009709F44AC0662329F1613009F001
S113039047C0DC012C91E22FE770F0E0EE0FFF1F65
S11303A0E859FF4F0190F081E02D60812695269554
S11303B02695277041E050E0DA0102C0AA0FBB1F66
S11303C02A95E2F79D01262B2083FC0120812068D9
S11303D0208380E00895DC012C91E22FE770F0E0A7
S11303E0EE0FFF1FE859FF4F0190F081E02D60816F
S11303F0269526952695277041E050E0DA0102C043
S1130400AA0FBB1F2A95E2F79D012095262320837E
S1130410FC0120812F77208380E0089581E00895F6
S113042081E00895DC01892B11F16115710509F151
S11304309C91E92FE770F0E0EE0FFF1FE05AFF4FA9
S11304400190F081E02D2081969596959695977070
S113045030E002C0359527959A95E2F72170FB01AB
S113046020838C9120FB87F98C9380E0089581E0B0
S10D0470089581E00895F894FFCF89
S113047A39003600330030003B00380035003200C2
S10B048A3A0037003400310090
S9030000FC
