S00E00006C65645F76322E73726563DA
S11300000C942A000C94E0020C9407030C9447000F
S11300100C9447000C9447000C9447000C94470040
S11300200C9447000C9447000C9447000C94470030
S11300300C9447000C9447000C9447000C94470020
S11300400C9447000C9447000C9447000C94470010
S11300500C94470011241FBECFE5D8E0DEBFCDBF0E
S113006010E0A0E6B0E0E0E6F6E002C005900D92F4
S1130070A237B107D9F720E0A2E7B0E001C01D9292
S1130080AE37B207E1F70E948B010C942E030C9457
S1130090000080916000882339F0809173008F5FA5
S11300A08093730010926000089510927800E9E73D
S11300B0F0E08081807880618F778083EAE7F0E0E8
S11300C08081807880628F778083EBE7F0E08081A5
S11300D0807880638F778083ECE7F0E082E081832F
S11300E08081887F8360877C80618F7B808388E7C1
S11300F090E00E94B70089E790E00E94B7008AE789
S113010090E00E94B7008BE790E00E94B70069E49A
S113011070E08CE790E00E941F0108958CE790E066
S11301200E9470019091720080917300981791F071
S113013090E089589F4F0E94E800809173008430BA
S113014010F010927300809173008093720081E02C
S1130150809360008CE790E00E94550180E090E07D
S113016001C00196883823E19207DCF30895CF9308
S1130170DF931F92CDB7DEB7009729F1FC012081F0
S1130180922F97708981887F892B922F92959F70E7
S11301909770990F990F990F877C892B27FB22273A
S11301A020F9806420FB87F98983CE0101960E949F
S11301B09001698167FB662760F9CE0101960E9470
S11301C0D40180E001C081E00F90DF91CF910895C8
S11301D00F931F93CF93DF931F92CDB7DEB7009792
S11301E039F18C01FC018081282F27709981987F37
S11301F0922B282F22952F702770220F220F220F67
S1130200977C922B87FB882780F9906480FB97F971
S11302109983CE0101960E942502898187FB882754
S113022080F9F801908180FB97F9908380E001C008
S113023081E00F90DF91CF911F910F9108950F935B
S11302401F93CF93DF93009721F16115710519F185
S1130250FC012081322F37703330F9F48B01EC012B
S11302602873203151F40E949001C8010E94CC02ED
S1130270CE010E944D0280E013C0283181F40E9417
S11302809001C8010E94D602CE010E94610280E062
S113029007C081E005C081E003C081E001C081E0C6
S11302A0DF91CF911F910F910895009799F0FC0170
S11302B02081322F3770333079F42873203121F4C0
S11302C00E947E0280E00895283141F40E94920247
S11302D080E0089581E0089581E0089581E0089523
S11302E0009799F0FC012081322F3770333079F474
S11302F02873203121F40E94AC0280E00895283153
S113030041F40E94BC0280E0089581E0089581E0F8
S1130310089581E008950E9455000E948E00FDCF4B
S1130320FC01892BD9F14081469546954695477045
S11303302081277030E02430310594F58081982F96
S1130340907486FF14C0220F331FF901E759FF4F41
S11303500190F081E02D208181E090E002C0880FBF
S1130360991F4A95E2F7822B808380E008959111CA
S113037019C0220F331FF901E759FF4F0190F08193
S1130380E02D208181E090E002C0880F991F4A95FA
S1130390E2F780958223808380E0089581E00895C8
S11303A081E0089581E00895009709F44AC0662326
S11303B029F1613009F047C0DC012C91E22FE7708C
S11303C0F0E0EE0FFF1FEF59FF4F0190F081E02D99
S11303D06081269526952695277041E050E0DA0144
S11303E002C0AA0FBB1F2A95E2F79D01262B20838A
S11303F0FC0120812068208380E00895DC012C9199
S1130400E22FE770F0E0EE0FFF1FEF59FF4F01906E
S1130410F081E02D6081269526952695277041E090
S113042050E0DA0102C0AA0FBB1F2A95E2F79D0132
S1130430209526232083FC0120812F77208380E0D0
S1130440089581E0089581E00895DC01892B19F174
S11304509C91E92FE770F0E0EE0FFF1FEF59FF4F7B
S11304600190F081E02D80819695969596959770F0
S113047021E030E002C0220F331F9A95E2F72827CB
S113048020839C9197FB882780F9809580FB97F9BE
S11304909C9380E0089581E00895FC01892B69F024
S11304A090819F73933159F495B78181892B85BFCE
S11304B08FB780688FBF80E0089581E0089581E060
S11304C00895FC01892BB1F090819F739B31A1F4B5
S11304D08BB780688BBF25B79181892F90E0880FF7
S11304E0991F880F991F822B85BF8FB780688FBF94
S11304F080E0089581E0089581E00895FC01892B4E
S113050069F090819F73933159F48BB780648BBFEA
S113051095B78181892B85BF80E0089581E0089596
S113052081E00895FC01892B99F090819F739B31A0
S113053089F48BB780688BBF25B79181892F90E0B0
S1130540880F991F880F991F822B85BF80E008951B
S113055081E0089581E00895009751F0FC018081C5
S11305608F73833139F48BB78F7B8BBF80E0089511
S113057081E0089581E00895009751F0FC018081A5
S11305808F738B3139F48BB78F778BBF80E00895ED
S113059081E0089581E00895009731F09093770009
S11305A08093760080E0089581E00895009731F00B
S11305B0909375008093740080E0089581E008951D
S11305C01F920F920FB60F9211242F933F934F93C4
S11305D05F936F937F938F939F93AF93BF93EF93A7
S11305E0FF93E0917600F09177000995FF91EF91E8
S11305F0BF91AF919F918F917F916F915F914F9137
S11306003F912F910F900FBE0F901F9018951F923E
S11306100F920FB60F9211242F933F934F935F9332
S11306206F937F938F939F93AF93BF93EF93FF93B6
S1130630E0917400F09175000995FF91EF91BF91DD
S1130640AF919F918F917F916F915F914F913F9166
S11306502F910F900FBE0F901F901895F894FFCF15
S1130660013B003800350032003A003700340031D5
S1050670000084
S9030000FC
