S011000042434D5F4D43555F312E737265636D
S11300000C942A000C9447000C9447000C9447006D
S11300100C9447000C9447000C9447000C94470040
S11300200C9447000C9447000C9447000C94470030
S11300300C9447000C94A8020C94CF020C949E02DA
S11300400C9447000C9447000C9447000C94470010
S11300500C94470011241FBECFE5D8E0DEBFCDBF0E
S113006010E0A0E6B0E0E0E3F9E002C005900D92F4
S1130070A83DB107D9F721E0A8EDB0E001C01D9279
S1130080A634B207E1F70E9433010C9496040C9451
S113009000001092450180E1809302011092010159
S11300A0E3E0F1E01082158283E08283118282E032
S11300B0838381E087838287168214828087838783
S11300C0818787E690E0A0E0B0E084879587A687E3
S11300D0B78785E491E00E94CB0082E091E00E9422
S11300E0CB0083E091E00E94F10308954091600009
S11300F05091610062E670E08FEF90E00E9400048E
S1130100C0E080E00E9448048330D9F7C1111AC0CE
S113011085E491E00E94FC0048ED50E063E171E069
S11301208FEF90E00E945C04C1E0EBCFFC01ED5E38
S1130130FE4F3081FC01EA56FF4F208132130DC07F
S1130140019602C080E090E02091940030919500E7
S11301508217930758F321E001C020E080E090E08B
S113016005C0FC01ED5EFE4F1082019682339105BD
S1130170C4F3213021F482E091E00E94FC0040911C
S113018060005091610062E670E08FEF90E00E94A1
S11301900004C0E0B6CFCF93DF931F92CDB7DEB794
S11301A0009729F1FC012081922F97708981887F23
S11301B0892B922F92959F709770990F990F990F91
S11301C0877C892B27FB222720F9806420FB87F971
S11301D08983CE0101960E943A01698167FB6627F3
S11301E060F9CE0101960E947E0181E001C080E0A9
S11301F00F90DF91CF9108950F931F93CF93DF93C7
S11302001F92CDB7DEB7009739F18C01FC018081D4
S1130210282F27709981987F922B282F22952F7051
S11302202770220F220F220F977C922B87FB88279F
S113023080F9906480FB97F99983CE0101960E941E
S1130240CF01898187FB882780F9F801908180FBA1
S113025097F9908381E001C080E00F90DF91CF9106
S11302601F910F9108950E9449000E94760080E03A
S113027090E00895FC01892BD9F14081469546957B
S1130280469547702081277030E02430310594F57D
S11302908081982F907486FF14C0220F331FF901B8
S11302A0E053FF4F0190F081E02D208181E090E048
S11302B002C0880F991F4A95E2F7822B808381E060
S11302C00895911119C0220F331FF901E053FF4F14
S11302D00190F081E02D208181E090E002C0880F40
S11302E0991F4A95E2F780958223808381E00895DF
S11302F080E0089580E0089580E00895009709F46F
S11303004AC0662329F1613009F047C0DC012C9111
S1130310E22FE770F0E0EE0FFF1FE853FF4F01906C
S1130320F081E02D6081269526952695277041E081
S113033050E0DA0102C0AA0FBB1F2A95E2F79D0123
S1130340262B2083FC0120812068208381E00895EE
S1130350DC012C91E22FE770F0E0EE0FFF1FE85371
S1130360FF4F0190F081E02D60812695269526951A
S1130370277041E050E0DA0102C0AA0FBB1F2A95A2
S1130380E2F79D01209526232083FC0120812F770D
S1130390208381E0089580E0089580E00895DC01E1
S11303A0892B19F19C91E92FE770F0E0EE0FFF1F04
S11303B0E853FF4F0190F081E02D8081969596954A
S11303C09695977021E030E002C0220F331F9A9572
S11303D0E2F7282720839C9197FB882780F9809552
S11303E080FB97F99C9381E0089580E00895FC01D7
S11303F0892B09F45DC0238130E0220F331F220FC3
S1130400331F220F331F608180E4689FB0011124E1
S1130410928180E1989FA001112434819181892FD8
S113042090E0880F991F2068262B422B432B842BA6
S113043080BD2BB19581892F90E0880F991F922F51
S11304409C7F892B8BB9218580E1289FA0011124F1
S11304509285292F30E0220F331F220F331F220FE2
S1130460331F9181969596959695892F90E0880FE4
S1130470991F880F991F9AB1242B822B9370892B73
S11304808AB9838589B983859485A585B685892F9D
S11304909A2FAB2FBB2780BD8681813031F08781B5
S11304A0813019F08085813029F4789481E00895B1
S11304B080E0089581E00895009739F05D9BFECFB8
S11304C0FC0180818CB981E0089580E00895009753
S11304D049F05F9BFECF2CB130E0FC0131832083D7
S11304E081E0089580E00895009731F09093DD0055
S11304F08093DC0081E0089580E008958AB18062F1
S11305008AB981E008958AB18F7D8AB981E008951E
S11305108AB180688AB981E00895009741F0909388
S1130520DB008093DA000E94880281E0089580E075
S113053008958AB18F778AB981E008951F920F9246
S11305400FB60F9211240F900FBE0F901F901895A5
S11305501F920F920FB60F9211242F933F934F9334
S11305605F936F937F938F939F93AF93BF93EF9317
S1130570FF93E091DA00F091DB000995FF91EF9190
S1130580BF91AF919F918F917F916F915F914F91A7
S11305903F912F910F900FBE0F901F9018951F92AF
S11305A00F920FB60F9211242F933F934F935F93A3
S11305B06F937F938F939F93AF93BF93EF93FF9327
S11305C0E091DC00F091DD000995FF91EF91BF917E
S11305D0AF919F918F917F916F915F914F913F91D7
S11305E02F910F900FBE0F901F901895CF93DF930C
S11305F01F92CDB7DEB78091E2009091E300A09105
S1130600E400B091E5000196A11DB11D8093E200C4
S11306109093E300A093E400B093E500813091054A
S1130620A105B105B1F42091F5003091F600880FD1
S1130630991F880F991F880F991FA90102C0569509
S113064047958A95E2F74983CE0101960E945C02A0
S113065026C04091F5005091F60060E070E08417E8
S11306609507A607B70778F42091F3003091F400BA
S11306700297F901E80FF91F80818983CE01019661
S11306800E945C020CC00E9483021092E20010924D
S1130690E3001092E4001092E5001092E6000F903F
S11306A0DF91CF910895CF93DF931F92CDB7DEB73B
S11306B08091DE009091DF00A091E000B091E10014
S11306C082309105A105B10588F5CE0101960E94FD
S11306D06702E091E900F091EA004091DE00509158
S11306E0DF006091E0007091E100898190E09A015F
S11306F0220F331F220F331F220F331F02C0880F14
S1130700991F2A95E2F720813181822B932B9183C3
S113071080834F5F5F4F6F4F7F4F4093DE00509356
S1130720DF006093E0007093E10057C00297A109D5
S1130730B109E091E900F091EA004081518160E063
S113074070E084179507A607B70708F046C0CE01E6
S113075001960E94670247EE50E0DA01ED91FC91A8
S11307608091DE009091DF00A091E000B091E10063
S11307709C0122503109E20FF31F29812083019645
S1130780A11DB11D8093DE009093DF00A093E000D3
S1130790B093E100FA0122813381F9014081518152
S11307A060E070E084179507A607B707B0F00E94D1
S11307B099021092DE001092DF001092E000109275
S11307C0E10082E08093E600E091E900F091EA0024
S11307D0808191810297918380830F90DF91CF91E3
S11307E00895009749F0FC012081211107C001966A
S11307F00E94F70181E0089580E0089581E0089562
S11308001F93CF93DF931F92CDB7DEB7DC0112960F
S1130810EC91E11134C02091E600223021F41092D1
S1130820E60011E001C012E02091E600211129C088
S1130830DC0121E02093E600F0E0EE0FFF1FEE0F55
S1130840FF1FED50FF4F718360831296EC91F0E02F
S1130850CA010296EE0FFF1FEE0FFF1FED50FF4F70
S1130860938382834E5F498386EF92E00E947402F1
S1130870CE0101960E945C020E947E0203C010E039
S113088001C012E0812F0F90DF91CF911F91089545
S113089081110CC08091E600823020F4811108C0DF
S11308A083E00895823031F483E0089580E0089570
S11308B082E0089582E00895CF93DC011296EC91D2
S11308C0E1112EC02091E600211105C022E0209301
S11308D0E600C1E001C0C2E02091E600223011F53B
S11308E0DA0123E02093E600F0E0EE0FFF1FEE0FA5
S11308F0FF1FE951FF4F718360831D921C92FC011D
S11309008281E82FF0E0EE0FFF1FEE0FFF1FE95189
S1130910FF4F5383428383E593E00E948D0203C01B
S1130920C0E001C0C2E08C2FCF910895F894FFCFAE
S11309300E0042434D204F7065726174696E67000A
S113094000000000000000000000000000000000A3
S11309500000000000000000000000000000000093
S1130960000000001600436F6E6669726D204243FA
S11309704D204F7065726174696E6700000000005D
S11309800000000000000000000000000000000063
S113099000000000000000003B0038003500320079
S10B09A03A0037003400310075
S9030000FC
